{
  "address": "0xF0Eb780e47f08C31A5708eB7D9D5636A54fb5844",
  "abi": [
    {
      "inputs": [
        {
          "internalType": "address",
          "name": "mare_",
          "type": "address"
        },
        {
          "internalType": "address",
          "name": "claimable_",
          "type": "address"
        },
        {
          "internalType": "address",
          "name": "admin_",
          "type": "address"
        }
      ],
      "stateMutability": "nonpayable",
      "type": "constructor"
    },
    {
      "anonymous": false,
      "inputs": [
        {
          "indexed": true,
          "internalType": "address",
          "name": "account",
          "type": "address"
        },
        {
          "indexed": false,
          "internalType": "uint256",
          "name": "amount",
          "type": "uint256"
        }
      ],
      "name": "Claim",
      "type": "event"
    },
    {
      "anonymous": false,
      "inputs": [
        {
          "indexed": true,
          "internalType": "address",
          "name": "account",
          "type": "address"
        },
        {
          "indexed": false,
          "internalType": "uint256",
          "name": "shares",
          "type": "uint256"
        },
        {
          "indexed": false,
          "internalType": "uint256",
          "name": "totalShares",
          "type": "uint256"
        }
      ],
      "name": "EditRecipient",
      "type": "event"
    },
    {
      "anonymous": false,
      "inputs": [
        {
          "indexed": false,
          "internalType": "address",
          "name": "newAdmin",
          "type": "address"
        }
      ],
      "name": "SetAdmin",
      "type": "event"
    },
    {
      "anonymous": false,
      "inputs": [
        {
          "indexed": true,
          "internalType": "address",
          "name": "account",
          "type": "address"
        },
        {
          "indexed": false,
          "internalType": "uint256",
          "name": "lastShareIndex",
          "type": "uint256"
        },
        {
          "indexed": false,
          "internalType": "uint256",
          "name": "credit",
          "type": "uint256"
        }
      ],
      "name": "UpdateCredit",
      "type": "event"
    },
    {
      "anonymous": false,
      "inputs": [
        {
          "indexed": false,
          "internalType": "uint256",
          "name": "shareIndex",
          "type": "uint256"
        }
      ],
      "name": "UpdateShareIndex",
      "type": "event"
    },
    {
      "inputs": [],
      "name": "admin",
      "outputs": [
        {
          "internalType": "address",
          "name": "",
          "type": "address"
        }
      ],
      "stateMutability": "view",
      "type": "function"
    },
    {
      "inputs": [],
      "name": "claim",
      "outputs": [
        {
          "internalType": "uint256",
          "name": "amount",
          "type": "uint256"
        }
      ],
      "stateMutability": "nonpayable",
      "type": "function"
    },
    {
      "inputs": [],
      "name": "claimable",
      "outputs": [
        {
          "internalType": "address",
          "name": "",
          "type": "address"
        }
      ],
      "stateMutability": "view",
      "type": "function"
    },
    {
      "inputs": [
        {
          "internalType": "address",
          "name": "account",
          "type": "address"
        },
        {
          "internalType": "uint256",
          "name": "shares",
          "type": "uint256"
        }
      ],
      "name": "editRecipient",
      "outputs": [],
      "stateMutability": "nonpayable",
      "type": "function"
    },
    {
      "inputs": [
        {
          "internalType": "address[]",
          "name": "accounts",
          "type": "address[]"
        },
        {
          "internalType": "uint256[]",
          "name": "shares",
          "type": "uint256[]"
        }
      ],
      "name": "editRecipients",
      "outputs": [],
      "stateMutability": "nonpayable",
      "type": "function"
    },
    {
      "inputs": [],
      "name": "mare",
      "outputs": [
        {
          "internalType": "address",
          "name": "",
          "type": "address"
        }
      ],
      "stateMutability": "view",
      "type": "function"
    },
    {
      "inputs": [
        {
          "internalType": "address",
          "name": "",
          "type": "address"
        }
      ],
      "name": "recipients",
      "outputs": [
        {
          "internalType": "uint256",
          "name": "shares",
          "type": "uint256"
        },
        {
          "internalType": "uint256",
          "name": "lastShareIndex",
          "type": "uint256"
        },
        {
          "internalType": "uint256",
          "name": "credit",
          "type": "uint256"
        }
      ],
      "stateMutability": "view",
      "type": "function"
    },
    {
      "inputs": [
        {
          "internalType": "address",
          "name": "admin_",
          "type": "address"
        }
      ],
      "name": "setAdmin",
      "outputs": [],
      "stateMutability": "nonpayable",
      "type": "function"
    },
    {
      "inputs": [],
      "name": "shareIndex",
      "outputs": [
        {
          "internalType": "uint256",
          "name": "",
          "type": "uint256"
        }
      ],
      "stateMutability": "view",
      "type": "function"
    },
    {
      "inputs": [],
      "name": "totalShares",
      "outputs": [
        {
          "internalType": "uint256",
          "name": "",
          "type": "uint256"
        }
      ],
      "stateMutability": "view",
      "type": "function"
    },
    {
      "inputs": [
        {
          "internalType": "address",
          "name": "account",
          "type": "address"
        }
      ],
      "name": "updateCredit",
      "outputs": [
        {
          "internalType": "uint256",
          "name": "credit",
          "type": "uint256"
        }
      ],
      "stateMutability": "nonpayable",
      "type": "function"
    },
    {
      "inputs": [],
      "name": "updateShareIndex",
      "outputs": [
        {
          "internalType": "uint256",
          "name": "_shareIndex",
          "type": "uint256"
        }
      ],
      "stateMutability": "nonpayable",
      "type": "function"
    }
  ],
  "transactionHash": "0x0ae0d813119e396d000176a7e44b51e36dab89f8a848a22d9e39232523c8d2c9",
  "args": [
    "0xd86c8d4279ccafbec840c782bcc50d201f277419",
    "0x71Ca32D5691E65C77d93B4cd706cB874816FE10e",
    "0xFb59Ce8986943163F14C590755b29dB2998F2322"
  ],
  "numDeployments": 1,
  "solcInputHash": "82f35b7205e6bc1f5d9fbc371929e16e",
  "bytecode": "0x60c06040526003805460ff1916600117905534801561001d57600080fd5b50604051610c51380380610c5183398101604081905261003c9161008d565b6001600160a01b0392831660805290821660a052600380549190921661010002610100600160a81b03199091161790556100d0565b80516001600160a01b038116811461008857600080fd5b919050565b6000806000606084860312156100a257600080fd5b6100ab84610071565b92506100b960208501610071565b91506100c760408501610071565b90509250925092565b60805160a051610b4e6101036000396000818161015c015261041b01526000818161010a015261072c0152610b4e6000f3fe608060405234801561001057600080fd5b50600436106100b45760003560e01c8063af38d75711610071578063af38d75714610157578063b260187d1461017e578063b9716d4f14610186578063c56ad1ad14610199578063eb820312146101a2578063f851a440146101ec57600080fd5b80633a98ef39146100b957806345c08718146100d55780634674a930146100e85780634e71d92d146100fd5780635890550f14610105578063704b6c0214610144575b600080fd5b6100c260015481565b6040519081526020015b60405180910390f35b6100c26100e3366004610814565b610204565b6100fb6100f636600461082f565b6102ce565b005b6100c2610314565b61012c7f000000000000000000000000000000000000000000000000000000000000000081565b6040516001600160a01b0390911681526020016100cc565b6100fb610152366004610814565b610324565b61012c7f000000000000000000000000000000000000000000000000000000000000000081565b6100c26103af565b6100fb61019436600461092f565b61052a565b6100c260025481565b6101d16101b0366004610814565b60006020819052908152604090208054600182015460029092015490919083565b604080519384526020840192909252908201526060016100cc565b60035461012c9061010090046001600160a01b031681565b60008061020f6103af565b90508061021f5750600092915050565b6001600160a01b038316600090815260208190526040902080546001820154600160a01b9161025991610253908690610609565b9061061c565b6102639190610a05565b81600201546102729190610a27565b600182018390556002820181905560408051848152602081018390529194506001600160a01b038616917ff7240857a4f83123f14a7bc3f77cd32d0ae71ede635c92ebdcc14d5ea8ed018a910160405180910390a25050919050565b60035461010090046001600160a01b031633146103065760405162461bcd60e51b81526004016102fd90610a3f565b60405180910390fd5b6103108282610628565b5050565b600061031f336106dc565b905090565b60035461010090046001600160a01b031633146103535760405162461bcd60e51b81526004016102fd90610a3f565b60038054610100600160a81b0319166101006001600160a01b038416908102919091179091556040519081527f5a272403b402d892977df56625f4164ccaf70ca3863991c43ecfe76a6905b0a19060200160405180910390a150565b60035460009060ff166103fd5760405162461bcd60e51b8152602060048201526016602482015275111a5cdd1c9a589d5d1bdc8e8814915153951154915160521b60448201526064016102fd565b6003805460ff19169055600154610417575060025461051a565b60007f00000000000000000000000000000000000000000000000000000000000000006001600160a01b0316634e71d92d6040518163ffffffff1660e01b81526004016020604051808303816000875af1158015610479573d6000803e3d6000fd5b505050506040513d601f19601f8201168201806040525081019061049d9190610a76565b9050806104ae57505060025461051a565b6104dd6002546104d76001546104d1600160a01b8661061c90919063ffffffff16565b906107e5565b906107f1565b60028190556040518181529092507f8cae7c5b456d193882de6985578f406aefb641501192211706c5aa0a32612fec9060200160405180910390a1505b6003805460ff1916600117905590565b60035461010090046001600160a01b031633146105595760405162461bcd60e51b81526004016102fd90610a3f565b80518251146105aa5760405162461bcd60e51b815260206004820152601f60248201527f4f776e65644469737472696275746f723a20494e56414c49445f494e5055540060448201526064016102fd565b60005b8251811015610604576105f28382815181106105cb576105cb610a8f565b60200260200101518383815181106105e5576105e5610a8f565b6020026020010151610628565b806105fc81610aa5565b9150506105ad565b505050565b60006106158284610ac0565b9392505050565b60006106158284610ad7565b61063182610204565b506001600160a01b0382166000908152602081905260408120805490918184116106705761066b6106628584610ac0565b60015490610609565b610686565b61068661067d8386610ac0565b600154906107f1565b600181905584845560408051868152602081018390529192506001600160a01b038716917fff3664f5f2f8f85ecd8d30ef2aa6773d8a8448219c7421dcbb67957fb3fafba1910160405180910390a25050505050565b60006106e782610204565b905080156107e0576001600160a01b03828116600081815260208190526040808220600201919091555163a9059cbb60e01b81526004810191909152602481018390527f00000000000000000000000000000000000000000000000000000000000000009091169063a9059cbb906044016020604051808303816000875af1158015610777573d6000803e3d6000fd5b505050506040513d601f19601f8201168201806040525081019061079b9190610af6565b50816001600160a01b03167f47cee97cb7acd717b3c0aa1435d004cd5b3c8c57d70dbceb4e4458bbd60e39d4826040516107d791815260200190565b60405180910390a25b919050565b60006106158284610a05565b60006106158284610a27565b80356001600160a01b03811681146107e057600080fd5b60006020828403121561082657600080fd5b610615826107fd565b6000806040838503121561084257600080fd5b61084b836107fd565b946020939093013593505050565b634e487b7160e01b600052604160045260246000fd5b604051601f8201601f1916810167ffffffffffffffff8111828210171561089857610898610859565b604052919050565b600067ffffffffffffffff8211156108ba576108ba610859565b5060051b60200190565b600082601f8301126108d557600080fd5b813560206108ea6108e5836108a0565b61086f565b82815260059290921b8401810191818101908684111561090957600080fd5b8286015b84811015610924578035835291830191830161090d565b509695505050505050565b6000806040838503121561094257600080fd5b823567ffffffffffffffff8082111561095a57600080fd5b818501915085601f83011261096e57600080fd5b8135602061097e6108e5836108a0565b82815260059290921b8401810191818101908984111561099d57600080fd5b948201945b838610156109c2576109b3866107fd565b825294820194908201906109a2565b965050860135925050808211156109d857600080fd5b506109e5858286016108c4565b9150509250929050565b634e487b7160e01b600052601160045260246000fd5b600082610a2257634e487b7160e01b600052601260045260246000fd5b500490565b60008219821115610a3a57610a3a6109ef565b500190565b6020808252601e908201527f4f776e65644469737472696275746f723a20554e415554484f52495a45440000604082015260600190565b600060208284031215610a8857600080fd5b5051919050565b634e487b7160e01b600052603260045260246000fd5b6000600019821415610ab957610ab96109ef565b5060010190565b600082821015610ad257610ad26109ef565b500390565b6000816000190483118215151615610af157610af16109ef565b500290565b600060208284031215610b0857600080fd5b8151801515811461061557600080fdfea264697066735822122024ede436254f5915fcd37a9fbfdcd9cac2761ea16dca1490ca0b0987701fc17864736f6c634300080a0033",
  "devdoc": {
    "kind": "dev",
    "methods": {},
    "version": 1
  },
  "userdoc": {
    "kind": "user",
    "methods": {},
    "version": 1
  },
  "storageLayout": {
    "storage": [
      {
        "astId": 1049,
        "contract": "contracts/OwnedDistributor.sol:OwnedDistributor",
        "label": "recipients",
        "offset": 0,
        "slot": "0",
        "type": "t_mapping(t_address,t_struct(Recipient)1044_storage)"
      },
      {
        "astId": 1051,
        "contract": "contracts/OwnedDistributor.sol:OwnedDistributor",
        "label": "totalShares",
        "offset": 0,
        "slot": "1",
        "type": "t_uint256"
      },
      {
        "astId": 1053,
        "contract": "contracts/OwnedDistributor.sol:OwnedDistributor",
        "label": "shareIndex",
        "offset": 0,
        "slot": "2",
        "type": "t_uint256"
      },
      {
        "astId": 1316,
        "contract": "contracts/OwnedDistributor.sol:OwnedDistributor",
        "label": "_notEntered",
        "offset": 0,
        "slot": "3",
        "type": "t_bool"
      },
      {
        "astId": 1896,
        "contract": "contracts/OwnedDistributor.sol:OwnedDistributor",
        "label": "admin",
        "offset": 1,
        "slot": "3",
        "type": "t_address"
      }
    ],
    "types": {
      "t_address": {
        "encoding": "inplace",
        "label": "address",
        "numberOfBytes": "20"
      },
      "t_bool": {
        "encoding": "inplace",
        "label": "bool",
        "numberOfBytes": "1"
      },
      "t_mapping(t_address,t_struct(Recipient)1044_storage)": {
        "encoding": "mapping",
        "key": "t_address",
        "label": "mapping(address => struct Distributor.Recipient)",
        "numberOfBytes": "32",
        "value": "t_struct(Recipient)1044_storage"
      },
      "t_struct(Recipient)1044_storage": {
        "encoding": "inplace",
        "label": "struct Distributor.Recipient",
        "members": [
          {
            "astId": 1039,
            "contract": "contracts/OwnedDistributor.sol:OwnedDistributor",
            "label": "shares",
            "offset": 0,
            "slot": "0",
            "type": "t_uint256"
          },
          {
            "astId": 1041,
            "contract": "contracts/OwnedDistributor.sol:OwnedDistributor",
            "label": "lastShareIndex",
            "offset": 0,
            "slot": "1",
            "type": "t_uint256"
          },
          {
            "astId": 1043,
            "contract": "contracts/OwnedDistributor.sol:OwnedDistributor",
            "label": "credit",
            "offset": 0,
            "slot": "2",
            "type": "t_uint256"
          }
        ],
        "numberOfBytes": "96"
      },
      "t_uint256": {
        "encoding": "inplace",
        "label": "uint256",
        "numberOfBytes": "32"
      }
    }
  }
}